:100000000C9446000C945D000C945D000C945D0013
:100010000C945D000C945D000C945D000C945D00EC
:100020000C945D000C945D000C945D000C945D00DC
:100030000C945D000C945D000C945D000C945D00CC
:100040000C945D000C945D000C945D000C945D00BC
:100050000C945D000C945D000C945D000C945D00AC
:100060000C945D000C945D000C945D000C945D009C
:100070000C945D000C945D000C945D000C945D008C
:100080000C945D000C945D000C945D0011241FBE67
:10009000CFEFD0E4DEBFCDBF11E0A0E0B1E0E2EBF6
:1000A000F1E000E00BBF02C007900D92AE30B10747
:1000B000D9F70E9488000C94D7000C940000CF93CD
:1000C000DF9300D01F92CDB7DEB789837B836A832D
:1000D00089818A3031F48A819B81BC018DE00E9444
:1000E0005F0080EC90E0FC018081882F90E08072BE
:1000F0009927892BB1F386EC90E02981FC012083BC
:1001000080E090E00F900F900F90DF91CF910895D5
:10011000CF93DF9300D0CDB7DEB781E290E0FC0152
:10012000108282E290E02FEFFC01208387E290E0D2
:100130002FEFFC01208388E290E0FC0110821A82FC
:10014000198280E290E0FC0180818F708A8319829D
:100150008A818D3018F08FE389831DC08A818A30AF
:1001600018F08EE3898317C08A81873018F08CE3FA
:10017000898311C08A81853018F088E389830BC098
:100180008A81833018F080E3898305C08A818823BF
:1001900011F080E289838A81853018F48981806436
:1001A000898388E290E02981FC012083CACFF894FA
:0201B000FFCF7F
:0E01B20000000002000000005F0000000000DE
:00000001FF
