:100000000C9446000C945D000C945D000C945D0013
:100010000C945D000C945D000C945D000C945D00EC
:100020000C945D000C945D000C945D000C945D00DC
:100030000C945D000C945D000C945D000C945D00CC
:100040000C945D000C945D000C945D000C945D00BC
:100050000C945D000C945D000C945D000C945D00AC
:100060000C945D000C945D000C945D000C945D009C
:100070000C945D000C945D000C945D000C945D008C
:100080000C945D000C945D000C945D0011241FBE67
:10009000CFEFD0E4DEBFCDBF11E0A0E0B1E0E6E9F4
:1000A000F4E000E00BBF02C007900D92AE30B10744
:1000B000D9F70E9488000C9449020C940000CF9359
:1000C000DF9300D01F92CDB7DEB789837B836A832D
:1000D00089818A3031F48A819B81BC018DE00E9444
:1000E0005F0080EC90E0FC018081882F90E08072BE
:1000F0009927892BB1F386EC90E02981FC012083BC
:1001000080E090E00F900F900F90DF91CF910895D5
:10011000CF93DF9300D000D0CDB7DEB781E290E07F
:10012000FC01108282E290E02FEFFC01208387E245
:1001300090E02FEFFC01208388E290E0FC01108228
:100140001C8287E0898380E290E0FC0180818370DB
:100150008C838A819B818230910509F484C083302D
:10016000910530F4009781F0019709F43FC059C11F
:100170008430910509F4DBC08430910508F4A5C0F2
:10018000059709F411C14DC18C81882329F481E0C0
:1001900090E09B838A834CC18C81882F90E0817092
:1001A0009927892B61F08C81882F90E082709927A4
:1001B000892B29F484E090E09B838A8316C08C818C
:1001C000882F90E082709927892B61F08C81882F8D
:1001D00090E081709927892B29F485E090E09B833A
:1001E0008A8303C01B821A8223C122C18C81882F7B
:1001F00090E081709927892B61F08C81882F90E0A5
:1002000082709927892B29F484E090E09B838A836C
:1002100029C08C81882F90E082709927892B61F00A
:100220008C81882F90E081709927892B29F485E0B3
:1002300090E09B838A8316C08C81882F90E0817028
:100240009927892B51F08C81882F90E08270992713
:10025000892B19F01B821A8205C081E090E09B83F4
:100260008A83E6C0E5C08C81882329F481E090E090
:100270009B838A83DDC08C81882F90E082709927D0
:10028000892B61F08C81882F90E081709927892BD0
:1002900029F485E090E09B838A8316C08C81882FA7
:1002A00090E081709927892B51F08C81882F90E004
:1002B00082709927892B19F01B821A8205C082E06F
:1002C00090E09B838A83B4C0B3C08C81882329F4D7
:1002D00081E090E09B838A83ABC08C81882F90E083
:1002E00081709927892B61F08C81882F90E0827032
:1002F0009927892B29F484E090E09B838A8316C098
:100300008C81882F90E081709927892B51F08C8106
:10031000882F90E082709927892B19F01B821A820E
:1003200005C083E090E09B838A8382C081C08C817A
:10033000882F90E081709927892B61F08C81882F1C
:1003400090E082709927892B29F482E090E09B83CA
:100350008A8329C08C81882F90E082709927892B0D
:1003600061F08C81882F90E081709927892B29F486
:1003700085E090E09B838A8316C08C81882F90E073
:1003800081709927892B51F08C81882F90E08270A1
:100390009927892B19F01B821A8205C084E090E00E
:1003A0009B838A8345C044C08C81882F90E08170F4
:1003B0009927892B61F08C81882F90E08270992792
:1003C000892B29F484E090E09B838A8329C08C8167
:1003D000882F90E082709927892B61F08C81882F7B
:1003E00090E081709927892B29F483E090E09B832A
:1003F0008A8316C08C81882F90E081709927892B81
:1004000051F08C81882F90E082709927892B19F008
:100410001B821A8205C085E090E09B838A8308C016
:1004200007C087E0898381E090E09B838A83000096
:100430008A819B8182309105F9F08330910518F40F
:10044000892B51F020C08430910541F08430910512
:10045000A8F0059751F017C0198215C0898189301D
:1004600078F489818F5F89830BC08981882351F05B
:1004700089818150898306C0000005C0000003C047
:10048000000001C0000088E290E02981FC01208387
:060490005ACEF894FFCFE4
:0E04960000000002000000005F0000000000F7
:00000001FF
