:100000000C9446000C945D000C945D000C945D0013
:100010000C945D000C945D000C945D000C945D00EC
:100020000C945D000C945D000C945D000C945D00DC
:100030000C945D000C945D000C945D000C945D00CC
:100040000C945D000C945D000C945D000C945D00BC
:100050000C945D000C945D000C945D000C945D00AC
:100060000C945D000C945D000C945D000C945D009C
:100070000C945D000C945D000C945D000C945D008C
:100080000C945D000C945D000C945D0011241FBE67
:10009000CFEFD0E4DEBFCDBF11E0A0E0B1E0E6E7F6
:1000A000F2E000E00BBF02C007900D92AE30B10746
:1000B000D9F70E9488000C9439010C940000CF936A
:1000C000DF9300D01F92CDB7DEB789837B836A832D
:1000D00089818A3031F48A819B81BC018DE00E9444
:1000E0005F0080EC90E0FC018081882F90E08072BE
:1000F0009927892BB1F386EC90E02981FC012083BC
:1001000080E090E00F900F900F90DF91CF910895D5
:10011000CF93DF9300D000D01F92CDB7DEB781E23E
:1001200090E0FC01108282E290E02FEFFC0120833E
:1001300084E290E02FEFFC01208385E290E0FC0157
:1001400010821D82198281E08A8380E290E0FC01A6
:10015000808181708D838B819C818230910509F42F
:1001600045C08330910528F4009759F00197C1F1FB
:100170004CC08330910509F43EC0049709F440C097
:1001800044C08D818823A1F08A81882389F08981E8
:10019000882F90E080729927892B29F084E090E0E5
:1001A0009C838B831CC082E090E09C838B8317C070
:1001B0008D81882381F18A81882369F58981882F3F
:1001C00090E081709927892B29F084E090E09C834E
:1001D0008B8321C083E090E09C838B831CC01BC079
:1001E0008D818823D1F41C821B8217C081E090E0AE
:1001F0009C838B8313C081E090E09C838B830EC033
:1002000081E090E09C838B8309C0198281E08A831E
:100210001C821B8203C0000001C000008B819C81F6
:100220008230910549F083309105E0F083309105EB
:1002300059F0049771F017C08981882F90E0880FDA
:10024000991F816089830FC0898186958062898327
:100250000AC019828A81882311F01A8204C081E0C1
:100260008A8301C0000085E290E02981FC0120839F
:060270006CCFF894FFCFF3
:0E02760000000002000000005F000000000019
:00000001FF
